{
  "contractName": "EV_SmartContract",
  "abi": [
    {
      "inputs": [
        {
          "internalType": "uint256",
          "name": "",
          "type": "uint256"
        }
      ],
      "name": "evdata",
      "outputs": [
        {
          "internalType": "uint256",
          "name": "timestamp",
          "type": "uint256"
        },
        {
          "internalType": "string",
          "name": "edata",
          "type": "string"
        }
      ],
      "stateMutability": "view",
      "type": "function",
      "constant": true
    },
    {
      "inputs": [
        {
          "internalType": "uint256",
          "name": "",
          "type": "uint256"
        }
      ],
      "name": "rdata",
      "outputs": [
        {
          "internalType": "uint256",
          "name": "timestamp",
          "type": "uint256"
        },
        {
          "internalType": "string",
          "name": "data",
          "type": "string"
        }
      ],
      "stateMutability": "view",
      "type": "function",
      "constant": true
    },
    {
      "inputs": [
        {
          "internalType": "string",
          "name": "r",
          "type": "string"
        }
      ],
      "name": "setEVData",
      "outputs": [],
      "stateMutability": "nonpayable",
      "type": "function"
    },
    {
      "inputs": [],
      "name": "getEVData",
      "outputs": [
        {
          "components": [
            {
              "internalType": "uint256",
              "name": "timestamp",
              "type": "uint256"
            },
            {
              "internalType": "string",
              "name": "edata",
              "type": "string"
            }
          ],
          "internalType": "struct EV_SmartContract.EVdata[]",
          "name": "",
          "type": "tuple[]"
        }
      ],
      "stateMutability": "view",
      "type": "function",
      "constant": true
    },
    {
      "inputs": [
        {
          "internalType": "string",
          "name": "r",
          "type": "string"
        }
      ],
      "name": "setUser",
      "outputs": [],
      "stateMutability": "nonpayable",
      "type": "function"
    },
    {
      "inputs": [],
      "name": "getUser",
      "outputs": [
        {
          "components": [
            {
              "internalType": "uint256",
              "name": "timestamp",
              "type": "uint256"
            },
            {
              "internalType": "string",
              "name": "data",
              "type": "string"
            }
          ],
          "internalType": "struct EV_SmartContract.register[]",
          "name": "",
          "type": "tuple[]"
        }
      ],
      "stateMutability": "view",
      "type": "function",
      "constant": true
    }
  ],
  "bytecode": "0x608060405234801561001057600080fd5b50610c3d806100206000396000f3fe608060405234801561001057600080fd5b50600436106100625760003560e01c806380b2b62314610067578063832880e714610098578063abe5b189146100b6578063acee02eb146100d4578063c329fe2b146100f0578063d0020fad14610121575b600080fd5b610081600480360381019061007c9190610688565b61013d565b60405161008f92919061075d565b60405180910390f35b6100a06101f9565b6040516100ad91906108e5565b60405180910390f35b6100be6102f4565b6040516100cb9190610a06565b60405180910390f35b6100ee60048036038101906100e99190610b5d565b6103ef565b005b61010a60048036038101906101059190610688565b610467565b60405161011892919061075d565b60405180910390f35b61013b60048036038101906101369190610b5d565b610523565b005b6000818154811061014d57600080fd5b906000526020600020906002020160009150905080600001549080600101805461017690610bd5565b80601f01602080910402602001604051908101604052809291908181526020018280546101a290610bd5565b80156101ef5780601f106101c4576101008083540402835291602001916101ef565b820191906000526020600020905b8154815290600101906020018083116101d257829003601f168201915b5050505050905082565b60606001805480602002602001604051908101604052809291908181526020016000905b828210156102eb57838290600052602060002090600202016040518060400160405290816000820154815260200160018201805461025a90610bd5565b80601f016020809104026020016040519081016040528092919081815260200182805461028690610bd5565b80156102d35780601f106102a8576101008083540402835291602001916102d3565b820191906000526020600020905b8154815290600101906020018083116102b657829003601f168201915b5050505050815250508152602001906001019061021d565b50505050905090565b60606000805480602002602001604051908101604052809291908181526020016000905b828210156103e657838290600052602060002090600202016040518060400160405290816000820154815260200160018201805461035590610bd5565b80601f016020809104026020016040519081016040528092919081815260200182805461038190610bd5565b80156103ce5780601f106103a3576101008083540402835291602001916103ce565b820191906000526020600020905b8154815290600101906020018083116103b157829003601f168201915b50505050508152505081526020019060010190610318565b50505050905090565b600081905060006040518060400160405280428152602001848152509050600081908060018154018082558091505060019003906000526020600020906002020160009091909190915060008201518160000155602082015181600101908051906020019061045f92919061059b565b505050505050565b6001818154811061047757600080fd5b90600052602060002090600202016000915090508060000154908060010180546104a090610bd5565b80601f01602080910402602001604051908101604052809291908181526020018280546104cc90610bd5565b80156105195780601f106104ee57610100808354040283529160200191610519565b820191906000526020600020905b8154815290600101906020018083116104fc57829003601f168201915b5050505050905082565b600081905060006040518060400160405280428152602001848152509050600181908060018154018082558091505060019003906000526020600020906002020160009091909190915060008201518160000155602082015181600101908051906020019061059392919061059b565b505050505050565b8280546105a790610bd5565b90600052602060002090601f0160209004810192826105c95760008555610610565b82601f106105e257805160ff1916838001178555610610565b82800160010185558215610610579182015b8281111561060f5782518255916020019190600101906105f4565b5b50905061061d9190610621565b5090565b5b8082111561063a576000816000905550600101610622565b5090565b6000604051905090565b600080fd5b600080fd5b6000819050919050565b61066581610652565b811461067057600080fd5b50565b6000813590506106828161065c565b92915050565b60006020828403121561069e5761069d610648565b5b60006106ac84828501610673565b91505092915050565b6106be81610652565b82525050565b600081519050919050565b600082825260208201905092915050565b60005b838110156106fe5780820151818401526020810190506106e3565b8381111561070d576000848401525b50505050565b6000601f19601f8301169050919050565b600061072f826106c4565b61073981856106cf565b93506107498185602086016106e0565b61075281610713565b840191505092915050565b600060408201905061077260008301856106b5565b81810360208301526107848184610724565b90509392505050565b600081519050919050565b600082825260208201905092915050565b6000819050602082019050919050565b6107c281610652565b82525050565b600082825260208201905092915050565b60006107e4826106c4565b6107ee81856107c8565b93506107fe8185602086016106e0565b61080781610713565b840191505092915050565b600060408301600083015161082a60008601826107b9565b506020830151848203602086015261084282826107d9565b9150508091505092915050565b600061085b8383610812565b905092915050565b6000602082019050919050565b600061087b8261078d565b6108858185610798565b935083602082028501610897856107a9565b8060005b858110156108d357848403895281516108b4858261084f565b94506108bf83610863565b925060208a0199505060018101905061089b565b50829750879550505050505092915050565b600060208201905081810360008301526108ff8184610870565b905092915050565b600081519050919050565b600082825260208201905092915050565b6000819050602082019050919050565b600060408301600083015161094b60008601826107b9565b506020830151848203602086015261096382826107d9565b9150508091505092915050565b600061097c8383610933565b905092915050565b6000602082019050919050565b600061099c82610907565b6109a68185610912565b9350836020820285016109b885610923565b8060005b858110156109f457848403895281516109d58582610970565b94506109e083610984565b925060208a019950506001810190506109bc565b50829750879550505050505092915050565b60006020820190508181036000830152610a208184610991565b905092915050565b600080fd5b600080fd5b7f4e487b7100000000000000000000000000000000000000000000000000000000600052604160045260246000fd5b610a6a82610713565b810181811067ffffffffffffffff82111715610a8957610a88610a32565b5b80604052505050565b6000610a9c61063e565b9050610aa88282610a61565b919050565b600067ffffffffffffffff821115610ac857610ac7610a32565b5b610ad182610713565b9050602081019050919050565b82818337600083830152505050565b6000610b00610afb84610aad565b610a92565b905082815260208101848484011115610b1c57610b1b610a2d565b5b610b27848285610ade565b509392505050565b600082601f830112610b4457610b43610a28565b5b8135610b54848260208601610aed565b91505092915050565b600060208284031215610b7357610b72610648565b5b600082013567ffffffffffffffff811115610b9157610b9061064d565b5b610b9d84828501610b2f565b91505092915050565b7f4e487b7100000000000000000000000000000000000000000000000000000000600052602260045260246000fd5b60006002820490506001821680610bed57607f821691505b60208210811415610c0157610c00610ba6565b5b5091905056fea26469706673582212200e760cff8ed9cd92924efebe1517ef187a4502184eed445e0a439e76efdd0eb464736f6c634300080b0033",
  "immutableReferences": {},
  "source": "pragma solidity >= 0.8.11 <= 0.8.11;\r\n\r\ncontract EV_SmartContract{\r\n\r\nstruct EVdata {\r\n        uint timestamp;\r\n        string edata;\r\n    }\r\n\r\n  struct register {\r\n        uint timestamp;\r\n        string data;\r\n    }\r\n\r\n\r\n \r\n\r\n EVdata[] public evdata;\r\nregister[] public rdata;\r\n\r\n\r\n  //call this function to EV data to Blockchain\r\n    function setEVData(string memory r) public {\r\n       bytes memory filebytes = bytes(r);\r\n\r\n       EVdata memory newContent = EVdata({\r\n        edata:r,\r\n        timestamp: block.timestamp\r\n       });\r\n\r\n    evdata.push(newContent);\r\n    }\r\n   //get request details\r\n    function getEVData() public view returns (EVdata[] memory) {\r\n        return evdata;\r\n    }\r\n\r\n\r\n\r\n  //call this function to register user request data to Blockchain\r\n    function setUser(string memory r) public {\r\n       bytes memory filebytes = bytes(r);\r\n\r\n       register memory newContent = register({\r\n        data:r,\r\n        timestamp: block.timestamp\r\n       });\r\n\r\n    rdata.push(newContent);\r\n    }\r\n   //get request details\r\n    function getUser() public view returns (register[] memory) {\r\n        return rdata;\r\n    }\r\n\r\n}\r\n",
  "sourcePath": "C:\\Users\\gkvte\\Desktop\\DEVELOPED PROJECTS\\DemandForecast\\hello-eth\\node_modules\\.bin\\contracts\\EV_SmartContract.sol",
  "compiler": {
    "name": "solc",
    "version": "0.8.11+commit.d7f03943.Emscripten.clang"
  },
  "schemaVersion": "3.4.4",
  "updatedAt": "2024-12-06T15:07:36.436Z",
  "networkType": "ethereum",
  "devdoc": {
    "kind": "dev",
    "methods": {},
    "version": 1
  },
  "userdoc": {
    "kind": "user",
    "methods": {},
    "version": 1
  }
}